{
    "contractName": "FlightSuretyApp",
    "abi": [
        {
            "constant": false,
            "inputs": [],
            "name": "registerOracle",
            "outputs": [],
            "payable": true,
            "stateMutability": "payable",
            "type": "function"
        },
        {
            "constant": true,
            "inputs": [],
            "name": "getMyIndexes",
            "outputs": [
                {
                    "name": "",
                    "type": "uint8[3]"
                }
            ],
            "payable": false,
            "stateMutability": "view",
            "type": "function"
        },
        {
            "constant": true,
            "inputs": [],
            "name": "registerAirline",
            "outputs": [
                {
                    "name": "success",
                    "type": "bool"
                },
                {
                    "name": "votes",
                    "type": "uint256"
                }
            ],
            "payable": false,
            "stateMutability": "pure",
            "type": "function"
        },
        {
            "constant": true,
            "inputs": [],
            "name": "REGISTRATION_FEE",
            "outputs": [
                {
                    "name": "",
                    "type": "uint256"
                }
            ],
            "payable": false,
            "stateMutability": "view",
            "type": "function"
        },
        {
            "constant": true,
            "inputs": [],
            "name": "registerFlight",
            "outputs": [],
            "payable": false,
            "stateMutability": "pure",
            "type": "function"
        },
        {
            "constant": false,
            "inputs": [
                {
                    "name": "index",
                    "type": "uint8"
                },
                {
                    "name": "airline",
                    "type": "address"
                },
                {
                    "name": "flight",
                    "type": "string"
                },
                {
                    "name": "timestamp",
                    "type": "uint256"
                },
                {
                    "name": "statusCode",
                    "type": "uint8"
                }
            ],
            "name": "submitOracleResponse",
            "outputs": [],
            "payable": false,
            "stateMutability": "nonpayable",
            "type": "function"
        },
        {
            "constant": true,
            "inputs": [],
            "name": "isOperational",
            "outputs": [
                {
                    "name": "",
                    "type": "bool"
                }
            ],
            "payable": false,
            "stateMutability": "pure",
            "type": "function"
        },
        {
            "constant": false,
            "inputs": [
                {
                    "name": "airline",
                    "type": "address"
                },
                {
                    "name": "flight",
                    "type": "string"
                },
                {
                    "name": "timestamp",
                    "type": "uint256"
                }
            ],
            "name": "fetchFlightStatus",
            "outputs": [],
            "payable": false,
            "stateMutability": "nonpayable",
            "type": "function"
        },
        {
            "inputs": [],
            "payable": false,
            "stateMutability": "nonpayable",
            "type": "constructor"
        },
        {
            "anonymous": false,
            "inputs": [
                {
                    "indexed": false,
                    "name": "airline",
                    "type": "address"
                },
                {
                    "indexed": false,
                    "name": "flight",
                    "type": "string"
                },
                {
                    "indexed": false,
                    "name": "timestamp",
                    "type": "uint256"
                },
                {
                    "indexed": false,
                    "name": "status",
                    "type": "uint8"
                }
            ],
            "name": "FlightStatusInfo",
            "type": "event"
        },
        {
            "anonymous": false,
            "inputs": [
                {
                    "indexed": false,
                    "name": "airline",
                    "type": "address"
                },
                {
                    "indexed": false,
                    "name": "flight",
                    "type": "string"
                },
                {
                    "indexed": false,
                    "name": "timestamp",
                    "type": "uint256"
                },
                {
                    "indexed": false,
                    "name": "status",
                    "type": "uint8"
                }
            ],
            "name": "OracleReport",
            "type": "event"
        },
        {
            "anonymous": false,
            "inputs": [
                {
                    "indexed": false,
                    "name": "index",
                    "type": "uint8"
                },
                {
                    "indexed": false,
                    "name": "airline",
                    "type": "address"
                },
                {
                    "indexed": false,
                    "name": "flight",
                    "type": "string"
                },
                {
                    "indexed": false,
                    "name": "timestamp",
                    "type": "uint256"
                }
            ],
            "name": "OracleRequest",
            "type": "event"
        }
    ],
    "bytecode": "60806040526002805460ff1916905534801561001a57600080fd5b5060008054600160a060020a03191633179055610c3a8061003c6000396000f30060806040526004361061008d5763ffffffff7c0100000000000000000000000000000000000000000000000000000000600035041663339d259081146100925780635f1cc0e61461009c57806363e29a3f146100e957806364b4f75114610119578063ae6f17e014610140578063c10f270014610155578063cd905dff14610197578063f83f11c0146101c0575b600080fd5b61009a6101f0565b005b3480156100a857600080fd5b506100b16102af565b6040518082606080838360005b838110156100d65781810151838201526020016100be565b5050505090500191505060405180910390f35b3480156100f557600080fd5b506100fe610382565b60408051921515835260208301919091528051918290030190f35b34801561012557600080fd5b5061012e610389565b60408051918252519081900360200190f35b34801561014c57600080fd5b5061009a610395565b34801561016157600080fd5b5061009a60ff60048035821691600160a060020a0360248035919091169260443591820192910135906064359060843516610397565b3480156101a357600080fd5b506101ac6107b8565b604080519115158252519081900360200190f35b3480156101cc57600080fd5b5061009a60048035600160a060020a031690602480359081019101356044356107bd565b6101f8610b3e565b670de0b6b3a7640000341015610258576040805160e560020a62461bcd02815260206004820152601c60248201527f526567697374726174696f6e2066656520697320726571756972656400000000604482015290519081900360640190fd5b610261336109aa565b60408051808201825260018082526020808301858152336000908152600392839052949094208351815460ff1916901515178155935194955091936102a99291840191610b5d565b50505050565b6102b7610b3e565b3360009081526003602052604090205460ff161515610320576040805160e560020a62461bcd02815260206004820152601b60248201527f4e6f74207265676973746572656420617320616e206f7261636c650000000000604482015290519081900360640190fd5b336000908152600360208190526040808320815160608101928390529360019091019291908390855b825461010083900a900460ff16815260206001928301818104948501949093039092029101808411610349579050505050505090505b90565b6000809091565b670de0b6b3a764000081565b565b3360009081526003602052604081206001015460ff888116911614806103d957503360009081526003602052604090206001015460ff88811661010090920416145b8061040157503360009081526003602052604090206001015460ff8881166201000090920416145b151561047d576040805160e560020a62461bcd02815260206004820152602360248201527f496e64657820646f6573206e6f74206d61746368206f7261636c65207265717560448201527f6573740000000000000000000000000000000000000000000000000000000000606482015290519081900360840190fd5b8686868686604051602001808660ff1660ff167f010000000000000000000000000000000000000000000000000000000000000002815260010185600160a060020a0316600160a060020a03166c010000000000000000000000000281526014018484808284378201915050828152602001955050505050506040516020818303038152906040526040518082805190602001908083835b602083106105345780518252601f199092019160209182019101610515565b51815160209384036101000a6000190180199092169116179052604080519290940182900390912060008181526004909252929020549194505074010000000000000000000000000000000000000000900460ff16151591506106099050576040805160e560020a62461bcd02815260206004820152602f60248201527f466c69676874206f722074696d657374616d7020646f206e6f74206d6174636860448201527f206f7261636c6520726571756573740000000000000000000000000000000000606482015290519081900360840190fd5b600081815260046020908152604080832060ff8616808552600191820184528285208054928301815585529383902001805473ffffffffffffffffffffffffffffffffffffffff1916331790558051600160a060020a038a168152908101869052606081019290925260809082018181529082018690527f43c853095c2752648493c88b4baac4d580d2594ffb00c6f1d4242d844514f783918891889188918891889160a0820186868082843760405192018290039850909650505050505050a1600081815260046020908152604080832060ff861684526001019091529020546003116107af577fe23f5229de535c091e3b7bec2665f5d698192d3b31393066e8987b7a05076b6c86868686866040518086600160a060020a0316600160a060020a03168152602001806020018481526020018360ff1660ff168152602001828103825286868281815260200192508082843760405192018290039850909650505050505050a16107af8686868080601f01602080910402602001604051908101604052809392919081815260200183838082843782019150505050505085856102a9565b50505050505050565b600190565b6000806107c933610a50565b91508186868686604051602001808660ff1660ff167f010000000000000000000000000000000000000000000000000000000000000002815260010185600160a060020a0316600160a060020a03166c010000000000000000000000000281526014018484808284378201915050828152602001955050505050506040516020818303038152906040526040518082805190602001908083835b602083106108825780518252601f199092019160209182019101610863565b51815160209384036101000a6000190180199092169116179052604080519290940182900382208285018552338352600183830190815260008281526004845286902093518454915173ffffffffffffffffffffffffffffffffffffffff19909216600160a060020a039182161774ff00000000000000000000000000000000000000001916740100000000000000000000000000000000000000009215159290920291909117909355845160ff8a168152928d16918301919091526060820189905260809382018481529382018a905295507f3ed01f2c3fc24c6b329d931e35b03e390d23497d22b3f90e15b600343e93df1194508693508a928a92508991899160a0820185858082843760405192018290039850909650505050505050a1505050505050565b6109b2610b3e565b6109ba610b3e565b6109c383610a50565b60ff1680825260208201525b8051602082015160ff908116911614156109f9576109ec83610a50565b60ff1660208201526109cf565b602081015160ff1660408201525b8051604082015160ff90811691161480610a2f57506020810151604082015160ff9081169116145b15610a4a57610a3d83610a50565b60ff166040820152610a07565b92915050565b6002805460ff198116600160ff9283169081019092161790915560408051439290920340602080840191909152600160a060020a0384166c010000000000000000000000000283830152815180840360340181526054909301918290528251600093600a938593859382918401908083835b60208310610ae15780518252601f199092019160209182019101610ac2565b5181516020939093036101000a6000190180199091169216919091179052604051920182900390912092505050811515610b1757fe5b600254919006915060fa60ff9091161115610b37576002805460ff191690555b9392505050565b6060604051908101604052806003906020820280388339509192915050565b600183019183908215610be05791602002820160005b83821115610bb157835183826101000a81548160ff021916908360ff1602179055509260200192600101602081600001049283019260010302610b73565b8015610bde5782816101000a81549060ff0219169055600101602081600001049283019260010302610bb1565b505b50610bec929150610bf0565b5090565b61037f91905b80821115610bec57805460ff19168155600101610bf65600a165627a7a72305820acb1ae8653887a957f79d22da394ab22bc0081299c954bb9a382e17b8157f05b0029",
    "sourcePath": "/Users/rcalles/Documents/Development/Udacity/Blockchain_Developer/FlightSurety/contracts/FlightSuretyApp.sol",
    "compiler": {
        "name": "solc",
        "version": "0.4.25+commit.59dbf8f1"
    },
    "functionHashes": {
        "REGISTRATION_FEE()": "64b4f751",
        "fetchFlightStatus(address,string,uint256)": "f83f11c0",
        "getMyIndexes()": "5f1cc0e6",
        "isOperational()": "cd905dff",
        "registerAirline()": "63e29a3f",
        "registerFlight()": "ae6f17e0",
        "registerOracle()": "339d2590",
        "submitOracleResponse(uint8,address,string,uint256,uint8)": "c10f2700"
    },
    "gasEstimates": {
        "creation": {
            "codeDepositCost": "626000",
            "executionCost": "41167",
            "totalCost": "667167"
        },
        "external": {
            "REGISTRATION_FEE()": "250",
            "fetchFlightStatus(address,string,uint256)": "infinite",
            "getMyIndexes()": "infinite",
            "isOperational()": "322",
            "registerAirline()": "264",
            "registerFlight()": "218",
            "registerOracle()": "infinite",
            "submitOracleResponse(uint8,address,string,uint256,uint8)": "infinite"
        },
        "internal": {
            "generateIndexes(address)": "infinite",
            "getFlightKey(address,string memory,uint256)": "infinite",
            "getRandomIndex(address)": "infinite",
            "processFlightStatus(address,string memory,uint256,uint8)": "infinite"
        }
    }
}